{
  "contractName": "FoodSafe",
  "abi": [
    {
      "constant": true,
      "inputs": [
        {
          "name": "",
          "type": "uint256"
        }
      ],
      "name": "trail",
      "outputs": [
        {
          "name": "name",
          "type": "string"
        },
        {
          "name": "locationId",
          "type": "uint256"
        },
        {
          "name": "previousLocationId",
          "type": "uint256"
        },
        {
          "name": "timestamp",
          "type": "uint256"
        },
        {
          "name": "secret",
          "type": "string"
        }
      ],
      "payable": false,
      "stateMutability": "view",
      "type": "function"
    },
    {
      "constant": true,
      "inputs": [],
      "name": "trailCount",
      "outputs": [
        {
          "name": "",
          "type": "uint8"
        }
      ],
      "payable": false,
      "stateMutability": "view",
      "type": "function"
    },
    {
      "constant": false,
      "inputs": [
        {
          "name": "locationId",
          "type": "uint256"
        },
        {
          "name": "name",
          "type": "string"
        },
        {
          "name": "secret",
          "type": "string"
        }
      ],
      "name": "addNewLocation",
      "outputs": [],
      "payable": false,
      "stateMutability": "nonpayable",
      "type": "function"
    },
    {
      "constant": false,
      "inputs": [],
      "name": "getTrailCount",
      "outputs": [
        {
          "name": "",
          "type": "uint8"
        }
      ],
      "payable": false,
      "stateMutability": "nonpayable",
      "type": "function"
    },
    {
      "constant": false,
      "inputs": [
        {
          "name": "trailNo",
          "type": "uint8"
        }
      ],
      "name": "getLocation",
      "outputs": [
        {
          "name": "",
          "type": "string"
        },
        {
          "name": "",
          "type": "uint256"
        },
        {
          "name": "",
          "type": "uint256"
        },
        {
          "name": "",
          "type": "uint256"
        },
        {
          "name": "",
          "type": "string"
        }
      ],
      "payable": false,
      "stateMutability": "nonpayable",
      "type": "function"
    }
  ],
  "bytecode": "0x60606040526000600160006101000a81548160ff021916908360ff160217905550341561002b57600080fd5b6108928061003a6000396000f30060606040526004361061006d576000357c0100000000000000000000000000000000000000000000000000000000900463ffffffff168063354373e7146100725780634790a265146101c9578063602c8097146101f857806373f0101c146102a1578063c0d25cf8146102d0575b600080fd5b341561007d57600080fd5b61009360048080359060200190919050506103f0565b6040518080602001868152602001858152602001848152602001806020018381038352888181546001816001161561010002031660029004815260200191508054600181600116156101000203166002900480156101325780601f1061010757610100808354040283529160200191610132565b820191906000526020600020905b81548152906001019060200180831161011557829003601f168201915b50508381038252848181546001816001161561010002031660029004815260200191508054600181600116156101000203166002900480156101b55780601f1061018a576101008083540402835291602001916101b5565b820191906000526020600020905b81548152906001019060200180831161019857829003601f168201915b505097505050505050505060405180910390f35b34156101d457600080fd5b6101dc610424565b604051808260ff1660ff16815260200191505060405180910390f35b341561020357600080fd5b61029f600480803590602001909190803590602001908201803590602001908080601f0160208091040260200160405190810160405280939291908181526020018383808284378201915050505050509190803590602001908201803590602001908080601f01602080910402602001604051908101604052809392919081815260200183838082843782019150505050505091905050610437565b005b34156102ac57600080fd5b6102b461056b565b604051808260ff1660ff16815260200191505060405180910390f35b34156102db57600080fd5b6102f4600480803560ff16906020019091905050610582565b604051808060200186815260200185815260200184815260200180602001838103835288818151815260200191508051906020019080838360005b8381101561034a57808201518184015260208101905061032f565b50505050905090810190601f1680156103775780820380516001836020036101000a031916815260200191505b50838103825284818151815260200191508051906020019080838360005b838110156103b0578082015181840152602081019050610395565b50505050905090810190601f1680156103dd5780820380516001836020036101000a031916815260200191505b5097505050505050505060405180910390f35b6000602052806000526040600020600091509050806000019080600101549080600201549080600301549080600401905085565b600160009054906101000a900460ff1681565b61043f61075d565b82816000018190525083816020018181525050818160800181905250428160600181815250506000600160009054906101000a900460ff1660ff161415156104b357600080600160009054906101000a900460ff1660ff168152602001908152602001600020600101548160400181815250505b80600080600160009054906101000a900460ff1660ff16815260200190815260200160002060008201518160000190805190602001906104f4929190610799565b50602082015181600101556040820151816002015560608201518160030155608082015181600401908051906020019061052f929190610799565b509050506001600081819054906101000a900460ff168092919060010191906101000a81548160ff021916908360ff1602179055505050505050565b6000600160009054906101000a900460ff16905090565b61058a610819565b6000806000610597610819565b6000808760ff1681526020019081526020016000206000016000808860ff168152602001908152602001600020600101546000808960ff168152602001908152602001600020600201546000808a60ff168152602001908152602001600020600301546000808b60ff168152602001908152602001600020600401848054600181600116156101000203166002900480601f0160208091040260200160405190810160405280929190818152602001828054600181600116156101000203166002900480156106a75780601f1061067c576101008083540402835291602001916106a7565b820191906000526020600020905b81548152906001019060200180831161068a57829003601f168201915b50505050509450808054600181600116156101000203166002900480601f0160208091040260200160405190810160405280929190818152602001828054600181600116156101000203166002900480156107435780601f1061071857610100808354040283529160200191610743565b820191906000526020600020905b81548152906001019060200180831161072657829003601f168201915b505050505090509450945094509450945091939590929450565b60a06040519081016040528061077161082d565b815260200160008152602001600081526020016000815260200161079361082d565b81525090565b828054600181600116156101000203166002900490600052602060002090601f016020900481019282601f106107da57805160ff1916838001178555610808565b82800160010185558215610808579182015b828111156108075782518255916020019190600101906107ec565b5b5090506108159190610841565b5090565b602060405190810160405280600081525090565b602060405190810160405280600081525090565b61086391905b8082111561085f576000816000905550600101610847565b5090565b905600a165627a7a72305820332359660d4def4a734db56b893a45b77ab8fdf7866f5db6aabd8d8a63c2adf30029",
  "source": "pragma solidity ^0.4.6;\n\n\ncontract FoodSafe {\n    struct Location {\n        string name;\n        uint locationId;\n        uint previousLocationId;\n        uint timestamp;\n        string secret;\n    }\n\n    mapping(uint => Location) public trail;\n    uint8 public trailCount = 0;\n\n    function addNewLocation(uint locationId, string name, string secret) public {\n        Location memory newLocation;\n        newLocation.name = name;\n        newLocation.locationId = locationId;\n        newLocation.secret = secret;\n        newLocation.timestamp = now;\n        if (trailCount != 0) {\n            newLocation.previousLocationId = trail[trailCount].locationId;\n        }\n        trail[trailCount] = newLocation;\n        trailCount++;\n    }\n\n    function getTrailCount() public returns (uint8) {\n        return trailCount;\n    }\n\n    function getLocation(uint8 trailNo) public returns (string, uint, uint, uint, string) {\n        return (\n            trail[trailNo].name,\n            trail[trailNo].locationId,\n            trail[trailNo].previousLocationId,\n            trail[trailNo].timestamp,\n            trail[trailNo].secret\n            );\n    }\n}\n",
  "sourcePath": "/Users/chucky/repos/distributedLedgers/blockchainDemo/foodsafe/contracts/FoodSafe.sol",
  "compiler": {
    "name": "solc",
    "version": "0.4.19+commit.c4cbbb05.Emscripten.clang"
  },
  "schemaVersion": "2.0.0",
  "updatedAt": "2018-03-31T22:08:18.435Z"
}